:100000000C9462000C948A000C948A000C948A0070
:100010000C948A000C948A000C948A000C948A0038
:100020000C948A000C948A000C948A000C948A0028
:100030000C948A000C948A000C948A000C948A0018
:100040000C94D8080C948A000C94A6080C94800890
:100050000C948A000C948A000C948A000C948A00F8
:100060000C948A000C948A000000000024002700F1
:100070002A0000000000250028002B0000000000DE
:1000800023002600290004040404040404040202DA
:100090000202020203030303030301020408102007
:1000A0004080010204081020010204081020000012
:1000B0000008000201000003040700000000000027
:1000C0000000220911241FBECFEFD8E0DEBFCDBF54
:1000D00011E0A0E0B1E0EEE9FDE102C005900D9273
:1000E000A233B107D9F722E0A2E3B1E001C01D922B
:1000F000AC31B207E1F710E0C2E6D0E004C02197CE
:10010000FE010E94A20DC136D107C9F70E94F7096E
:100110000C94CD0E0C940000AF92BF92CF92DF9260
:10012000EF92FF920F931F93CF93DF936C017B01AC
:100130008B01040F151FEB015E01AE18BF08C0173D
:10014000D10759F06991D601ED91FC910190F081B0
:10015000E02DC6010995892B79F7C501DF91CF9173
:100160001F910F91FF90EF90DF90CF90BF90AF90D5
:100170000895FC01538D448D252F30E0842F90E0AD
:10018000821B930B541710F0CF9608950197089592
:10019000FC01918D828D981761F0A28DAE0FBF2F5B
:1001A000B11D5D968C91928D9F5F9F73928F90E0B1
:1001B00008958FEF9FEF0895FC01918D828D981720
:1001C00031F0828DE80FF11D858D90E008958FEF5D
:1001D0009FEF0895FC01918D228D892F90E0805C26
:1001E0009F4F821B91098F739927089581E491E0B5
:1001F0000E94EA0021E0892B09F420E0822F089573
:1002000080E090E0892B29F00E94F60081110C9487
:1002100000000895FC01A48DA80FB92FB11DA35AA9
:10022000BF4F2C91848D90E001968F739927848F16
:10023000A689B7892C93A089B1898C918370806439
:100240008C93938D848D981306C00288F389E02DDA
:1002500080818F7D80830895EF92FF920F931F938B
:10026000CF93DF93EC0181E0888F9B8D8C8D981369
:100270001AC0E889F989808185FF15C09FB7F89475
:10028000EE89FF896083E889F989808183708064C1
:1002900080839FBF81E090E0DF91CF911F910F910C
:1002A000FF90EF900895F62E0B8D10E00F5F1F4F1B
:1002B0000F731127E02E8C8D8E110CC00FB607FC2A
:1002C000FACFE889F989808185FFF5CFCE010E94B8
:1002D0000A01F1CFEB8DEC0FFD2FF11DE35AFF4F1B
:1002E000F0829FB7F8940B8FEA89FB898081806246
:1002F000CFCFCF93DF93EC01888D8823B9F0AA8903
:10030000BB89E889F9898C9185FD03C0808186FDD0
:100310000DC00FB607FCF7CF8C9185FFF2CF80811F
:1003200085FFEDCFCE010E940A01E9CFDF91CF9189
:100330000895833081F028F4813099F08230A9F05B
:1003400008958730A9F08830C9F08430B1F48091E5
:1003500080008F7D03C0809180008F778093800024
:10036000089584B58F7784BD089584B58F7DFBCFC4
:100370008091B0008F778093B00008958091B00095
:100380008F7DF9CFCF93DF93282F30E0F901E2552D
:10039000FF4F8491F901E656FF4FD491F901EA57D6
:1003A000FF4FC491CC23A1F081110E949901EC2F41
:1003B000F0E0EE0FFF1FE458FF4FA591B491EC91D0
:1003C000ED2381E090E009F480E0DF91CF91089582
:1003D00080E090E0FACF1F93CF93DF93282F30E097
:1003E000F901E255FF4F8491F901E656FF4FD49190
:1003F000F901EA57FF4FC491CC23A9F0162F8111C0
:100400000E949901EC2FF0E0EE0FFF1FEE58FF4F16
:10041000A591B4918FB7F894EC91111108C0D095C3
:10042000DE23DC938FBFDF91CF911F910895DE2BE8
:10043000F8CFCF93DF9390E0FC01E656FF4F249175
:100440008A579F4FFC0184918823C9F090E0880F60
:10045000991FFC01E859FF4FA591B491FC01EE589A
:10046000FF4FC591D49161110DC09FB7F8948C9145
:10047000209582238C938881282328839FBFDF9136
:10048000CF910895623051F49FB7F8943C91822F38
:10049000809583238C93E8812E2BEFCF8FB7F89430
:1004A000EC912E2B2C938FBFEACF8E3008F08E501C
:1004B0008770806480937C0080917A008064809350
:1004C0007A0080917A0086FDFCCF8091780090912F
:1004D000790008952FB7F8946091390170913A012D
:1004E00080913B0190913C012FBF0895E0913D0127
:1004F000F0913E0124E2DC0101900D922A95E1F792
:100500000895E0913F01F091400124E2DC01019067
:100510000D922A95E1F70895CF93DF93EC010E94A5
:100520006A02888D998D0196998F888FDF91CF917E
:100530000895FC0101900020E9F73197AF01481BB5
:10054000590BBC0181E491E00C948C008F929F9236
:10055000AF92BF920F931F93CF93DF93CDB7DEB7C8
:10056000A1970FB6F894DEBF0FBECDBF19A24230DF
:1005700008F44AE08E010F5D1F4F842E912CB12CA0
:10058000A12CA50194010E94800DE62FB901CA019A
:10059000EA30F4F4E05DD801EE938D01232B242B97
:1005A000252B79F790E080E0109719F0CD010E949B
:1005B0009902A1960FB6F894DEBF0FBECDBFDF91B2
:1005C000CF911F910F91BF90AF909F908F90089502
:1005D000E95CE1CFCF92DF92EF92FF92CF93DF936E
:1005E0006B017C016DE281E491E00E942C01EC0141
:1005F00066277727CB016C197D098E099F094AE090
:100600000E94A6028C0F9D1FDF91CF91FF90EF906B
:10061000DF90CF900895CF93DF93BC01990F880BA3
:10062000990B97FF0CC00E94EA02EC018FE191E068
:100630000E9499028C0F9D1FDF91CF9108954AE08F
:100640000E94A602F2CFBC01990F880B990B97FD6F
:100650000C94EA024AE00C94A602EF92FF920F93E8
:100660001F93CF93DF93FC016130710549F5413051
:100670005105F9F4C481D581F68010E000E037FD22
:1006800007C089012F3F310519F014F00FEF10E07A
:10069000EC2E61E08C2F0E94190260E0011511051B
:1006A00021F00F3F110519F561E08C2F0E94EB013D
:1006B00045C042305105A9F4C681D781F480DDCF11
:1006C0006230710571F44130510521F4C085D18546
:1006D000F284D3CF4230510521F4C285D385F08412
:1006E000CCCFF12CD0E0C0E030E020E0CACFFE015A
:1006F000FF27E255FF4FE491E33099F158F4E130E0
:10070000C9F0E23049F160E0003811050CF061E019
:100710008E2DCCCFE73079F1E830A9F1E43099F7AC
:100720008091800080628093800010938B00009302
:100730008A0004C084B5806884BD07BD61E08F2D48
:100740000E94190260E08F2DDF91CF911F910F91D0
:10075000FF90EF900C94EB0184B5806284BD08BDDE
:10076000EDCF809180008068809380001093890095
:1007700000938800E3CF8091B00080688093B00040
:100780000093B300DBCF8091B00080628093B00013
:100790000093B400D3CF2F923F924F925F926F920B
:1007A0007F928F929F92AF92BF92CF92DF92EF9201
:1007B000FF920F931F93CF93DF93CDB7DEB7EA97E6
:1007C0000FB6F894DEBF0FBECDBF8C0120E030E045
:1007D000A901DC0152966D917D918D919C91559767
:1007E0000E94AF0B882319F0C8010E948C02F80107
:1007F000208031808789882309F475C0028CF38DAD
:10080000E02D8FE0DE01119601900D928A95E1F7BF
:1008100049805A806B807C802C853D854E855F8524
:100820008F819885A985BA85281B390B4A0B5B0BEC
:100830002FAB38AF49AF5AAF31E02316310409F47A
:100840008EC042E02416310409F490C0A70196013D
:10085000C701B6010E94430B2BED3FE049E450E491
:100860000E94130DA30192010E94130D20E030E0BD
:1008700040E752E40E94B40B20E030E04AE754E441
:100880000E94B40B6B017C0151E02516310409F480
:1008900074C082E02816310409F478C06FA978ADDD
:1008A00089AD9AAD0E945C0C9B01AC0160E070E0E8
:1008B00088E591E40E94B40B2B013C01A501940151
:1008C000C701B6010E94130D9B01AC01C301B20127
:1008D0000E94B40BD80116966D937D938D939C93D3
:1008E000199757961C92F80112861386148615865E
:1008F00080E090E0A0ECBFE786879787A08BB18B64
:10090000168A0280F381E02D86E3DE0111960190C4
:100910000D928A95E1F7D80114964D915C9130E0E3
:1009200020E0B101CE0101960E942D03EA960FB698
:10093000F894DEBF0FBECDBFDF91CF911F910F9115
:10094000FF90EF90DF90CF90BF90AF909F908F90EF
:100950007F906F905F904F903F902F900895C12CA3
:10096000D12C34E6E32E32E4F32E70CFC12CD12CFF
:100970002CE2E22E22E4F22E69CF98EE892E94E149
:10098000992E9FE5A92E9FEBB92E88CF812C912C13
:10099000A12C8FE3B82E82CF4F925F926F927F92FD
:1009A0008F929F92AF92BF92CF92DF92EF92FF927F
:1009B0000F93CF93DF93CDB7DEB7E6970FB6F894DA
:1009C000DEBF0FBECDBF7C012A013B016901802E35
:1009D000912CAB019201DC011A966D917D918D9164
:1009E0009C911D970E94AF0B81111BC0F701848160
:1009F00095818C159D05A9F4B401092C000C880B78
:100A0000990B0E945E0C9B01AC01D70152966D912F
:100A10007D918D919C9155970E94AF0B882309F48D
:100A20007EC080E090E0A0ECBFE7F7018687978763
:100A3000A08BB18BD582C482D7014286538664864F
:100A40007586FE0131965F010023B9F120E030E0A8
:100A5000A90152966D917D918D919C9155970E941F
:100A6000AF0B882319F0C7010E948C02D70114969E
:100A70008D919C9115971A964D915D916D917C91F8
:100A80001D9749835A836B837C839E838D830E9449
:100A90006A02D7015896ED91FC913E96EE0FFF1F2A
:100AA000EE0DFF1DB182A08280E090E0A0E8BFE3E0
:100AB000F701828B938BA48BB58B20E030E04FE75E
:100AC00053E4C301B2010E94130D0E94260C2B01B6
:100AD000D7011296ED91FC9186E3D50101900D921C
:100AE0008A95E1F7F701608171819201A601C50144
:100AF0000E942D0382E291E00E949902C2010E94AD
:100B0000230389E291E00E949902C6010E94230317
:100B100089E291E00E949902C4010E940B03E696CB
:100B20000FB6F894DEBF0FBECDBFDF91CF910F910E
:100B3000FF90EF90DF90CF90BF90AF909F908F90FD
:100B40007F906F905F904F9008958F929F92AF9299
:100B5000BF92EF92FF920F93CF93DF93EC0120E0CF
:100B600030E0A9016A897B898C899D890E94AF0B3D
:100B7000882319F0CE010E948C0281E08E8BE88DD3
:100B8000F98D9F0121503109398F288F37FF0FC010
:100B9000198E188E1E8ACE01DF91CF910F91FF9092
:100BA000EF90BF90AF909F908F900C94CB033D96A9
:100BB000EE0FFF1FEC0FFD1F0190F081E02D408133
:100BC00051816281738183849484A584B6848681F3
:100BD0009781A085B185881A990AAA0ABB0A8481DF
:100BE000958181309105E9F00297F9F000E09701D5
:100BF000CE010E94CC040E946A02680D791D8A1DF4
:100C00009B1D0E945C0C6E877F87888B998BDF9180
:100C1000CF910F91FF90EF90BF90AF909F908F90EA
:100C2000089592E0E92EF12CE1CFEE24E394F12C2B
:100C3000DDCFCF93DF93EC0188819981019739F45F
:100C4000EA81FB81848D0E9455020E940B0320E003
:100C500030E0A9016A857B858C859D850E94AF0B5C
:100C60008823C9F00E946A020E945C0C2E853F8591
:100C7000488959890E940E0D87FD0DC08E898823F1
:100C800029F0CE01DF91CF910C94A505CE01DF9123
:100C9000CF910C94CB03DF91CF9108954F925F9247
:100CA0006F927F928F929F92AF92BF92CF92DF927C
:100CB000EF92FF920F931F93CF93DF93CDB7DEB7E1
:100CC0002A970FB6F894DEBF0FBECDBF9A878987EB
:100CD0004A015B010D831E832F8338870E2DDC01B3
:100CE000ED90FC90B1E0EB16F10409F485C0E2E070
:100CF000EE16F10431F4412C512C9CE2692E92E461
:100D0000792EA3019201C301B2010E94430B2BED86
:100D10003FE049E450E40E94130DA50194010E94B4
:100D2000130D20E030E040E752E40E94B40B20E0D5
:100D300030E04AE754E40E94B40B2B013C01F1E09F
:100D4000EF16F10409F45FC082E0E816F10409F43B
:100D500063C06D817E818F8198850E942D0C0E94D9
:100D60005C0C6B017C0129813A814B815C81C30160
:100D7000B2010E94130DA985BA8516962D913D9159
:100D80004D915C9119970E94130D9B01AC01C70115
:100D9000B6010E94B40B0E942D0C6B017C0121E076
:100DA00030E0B501A40189859A850E94CC040E9497
:100DB0006A026C0D7D1D8E1D9F1D0E945C0CE985D5
:100DC000FA8566877787808B918B2A960FB6F89481
:100DD000DEBF0FBECDBFDF91CF911F910F91FF906E
:100DE000EF90DF90CF90BF90AF909F908F907F90CB
:100DF0006F905F904F900895412C512C84E6682E9F
:100E000082E4782E7ECF88EE94E1AFE5BFEB898354
:100E10009A83AB83BC839DCF80E090E0A0E0BFE3EA
:100E2000F6CFEF920F931F93CF93DF93CDB7DEB73B
:100E3000C854D1090FB6F894DEBF0FBECDBFE09104
:100E40003201F0913301EE0FFF1FE95FFE4F019079
:100E5000F081E02DE830F10508F05CC0EE5CF84F61
:100E60000C94A20D3A075D076807BE07E307270841
:100E70005A086F0880910001882371F00E946A026D
:100E800068577C4E8F4F9F4F6093DE017093DF0158
:100E90008093E0019093E1010E946A020091DE01DB
:100EA0001091DF012091E0013091E101601771079D
:100EB0008207930708F453C02DC080910001882356
:100EC00059F30E946A026854744F8F4F9F4FDCCFD2
:100ED00080910001882379F0CE0101960E94810261
:100EE00001E021E030E04AE959E969E17FE3CE0120
:100EF00001960E94CC048091FE010E94550289391E
:100F00009105BCF0CE0101960E948102CE010196AE
:100F10000E94CB038091320190913301019690930E
:100F200033018093320181E0809300010E94110718
:100F300016C08091FE010E945502813591057CF01A
:100F4000CE0101960E94810201E021E030E04AE9F1
:100F500059E969E97EE3CE0101960E94CC04109222
:100F60000001C85BDF4F0FB6F894DEBF0FBECDBFE8
:100F7000DF91CF911F910F91EF9008958091000123
:100F8000882389F0CE0101960E947602E12C00E0D0
:100F900010E020E830E440E050E060E07FE3CE0184
:100FA00001960E944E06CE0101960E94760220E034
:100FB00030E0A9016B857C858D859E850E94AF0BF5
:100FC0008111CDCFA7CF80910001882319F1CE01E7
:100FD00001960E948102EE24E39400E010E020E2FA
:100FE00030E440E050E060E87FE3CE0101960E94EB
:100FF0004E06CE0101960E947602E12C00E010E040
:1010000020EE30E44AE959E969E17FE3CE01019637
:101010000E944E06CE0101960E94810220E030E03F
:10102000A9016B857C858D859E850E94AF0B811102
:1010300096CFCE0185960E94760220E030E0A9018D
:101040006FA578A989A99AA90E94AF0BB9CF809101
:1010500000018823F9F0CE0101960E947602E12C6E
:1010600000E010E020E83FE34AE959E969E97EE35E
:10107000CE0101960E944E060E946A0268577C4E7D
:101080008F4F9F4F6093DE017093DF018093E001EB
:101090009093E101CE0101960E94760220E030E0BB
:1010A000A9016B857C858D859E850E94AF0B811182
:1010B00056CFF2CE80910001882341F0CE010196F7
:1010C0000E948102CE0101960E94A505CE010196E3
:1010D0000E9481028F89813009F01CCF40CFCE0160
:1010E00001960E948102CE0101960E94CB03CE019F
:1010F00001960E947602CE0101960E94CB032FCF6B
:101100001F920F920FB60F9211242F933F934F937C
:101110005F936F937F938F939F93AF93BF93EF935F
:10112000FF9381E491E00E940A01FF91EF91BF914A
:10113000AF919F918F917F916F915F914F913F916F
:101140002F910F900FBE0F901F9018951F920F9226
:101150000FB60F9211242F938F939F93EF93FF93CA
:10116000E0915101F09152018081E0915701F0919D
:10117000580182FD1BC0908180915A018F5F8F734F
:1011800020915B01821741F0E0915A01F0E0EF5BA2
:10119000FE4F958F80935A01FF91EF919F918F9110
:1011A0002F910F900FBE0F901F9018958081F4CF54
:1011B0001F920F920FB60F9211242F933F938F938C
:1011C0009F93AF93BF938091390190913A01A09181
:1011D0003B01B0913C013091380123E0230F2D37C2
:1011E00058F50196A11DB11D209338018093390156
:1011F00090933A01A0933B01B0933C01809134015C
:1012000090913501A0913601B09137010196A11D51
:10121000B11D8093340190933501A0933601B093B2
:101220003701BF91AF919F918F913F912F910F9077
:101230000FBE0F901F90189526E8230F0296A11D50
:10124000B11DD2CFCF93DF93E1E4F1E0138212829C
:1012500088EE93E0A0E0B0E084839583A683B78313
:1012600081E191E09183808385EC90E0958784878C
:1012700084EC90E09787868780EC90E0918B808B60
:1012800081EC90E0938B828B82EC90E0958B848B49
:1012900086EC90E0978B868B118E128E138E148EB7
:1012A000C2EED1E08CE090E0998388838DE090E0FD
:1012B0009B838A8385E090E09D838C8386E090E029
:1012C0009F838E838BE090E0998788878AE090E007
:1012D0009B878A8789E090E09D878C8788E090E0F3
:1012E0009F878E8787E090E0998B888B84E090E0E1
:1012F0009B8B8A8B82E090E09D8B8C8B83E090E0CF
:101300009F8B8E8B8EE090E099A388A38FE090E076
:101310009BA38AA380E190E09DA38CA381E190E050
:101320009FA38EA382E190E09F8F8E8F83E190E058
:101330009D8F8C8F19A618A61BA61AA682E390E093
:101340009DAB8CAB61E08CE00E94190261E08A8168
:101350000E94190261E08C810E94190261E08E8175
:101360000E94190261E088850E94190261E08A8565
:101370000E94190261E08C850E94190261E08E854D
:101380000E94190261E088890E94190261E08A893D
:101390000E94190262E088A10E94190262E08AA1FB
:1013A0000E94190262E08CA10E94190262E08EA1E3
:1013B0000E94190262E08C890E94190262E08E8903
:1013C0000E94190260E08C8D0E94190260E08E8DEF
:1013D0000E9419020E946A026093DE017093DF018D
:1013E0008093E0019093E101DF91CF910895CF9335
:1013F000DF93CDB7DEB7C25AD1090FB6F894DEBF7E
:101400000FBECDBF789484B5826084BD84B5816001
:1014100084BD85B5826085BD85B5816085BD8091BF
:101420006E00816080936E00109281008091810037
:10143000826080938100809181008160809381002F
:10144000809180008160809380008091B1008460F1
:101450008093B1008091B00081608093B000809152
:101460007A00846080937A0080917A008260809311
:101470007A0080917A00816080937A0080917A006E
:10148000806880937A001092C100E0915101F09140
:10149000520182E08083E0914D01F0914E01108273
:1014A000E0914F01F09150018FEC8083109259012F
:1014B000E0915501F091560186E08083E09153015F
:1014C000F0915401808180618083E0915301F0911B
:1014D0005401808188608083E0915301F091540130
:1014E000808180688083E0915301F0915401808174
:1014F0008F7D808386E3E2EEF1E0DE01D7960190F6
:101500000D928A95E1F784E290E00E94A80D46E3EF
:10151000FE01F7969E012F5F3F4FD90101900D927A
:101520004A95E1F701E010E0FC0111830083338369
:10153000228315830483812C912C20E8A22E2FE393
:10154000B22E86829782A086B18612861386148672
:101550001586C12CD12C30ECE32E3FE7F32EC68646
:10156000D786E08AF18A128A138A148A158A118E24
:10157000108E168A178A9093400180933F0186E36C
:10158000E2EEF1E0DE01A359BF4F01900D928A9582
:10159000E1F784E290E00E94A80D26E3FE01E35902
:1015A000FF4FDE01D79601900D922A95E1F722E0D8
:1015B00030E0FC01318320839E01295C3F4F33835F
:1015C00022831583048386829782A086B186128641
:1015D000138614861586C686D786E08AF18A128A13
:1015E000138A148A158A118E108E168A178A909380
:1015F0003E0180933D0100E010E08BE291E00E940B
:1016000099028091FE010E9455020E940B03809175
:1016100002020E94C201892BF1F0CE0183599F4F33
:101620000E948102CE0183599F4F0E94CB03CE01BD
:1016300083599F4F0E947602CE0183599F4F0E948B
:10164000CB0301151105C9F20E94F6008823A9F207
:101650000E940000D2CFCE0183599F4F0E94810289
:10166000CE0183599F4F0E941906CE0183599F4F87
:101670000E947602CE0183599F4F0E9419060E9454
:101680001107DFCF5058BB27AA270E945A0B0C9492
:10169000D40C0E94C60C38F00E94CD0C20F039F416
:1016A0009F3F19F426F40C94C30C0EF4E095E7FB6D
:1016B0000C94BD0CE92F0E94E50C58F3BA17620791
:1016C00073078407950720F079F4A6F50C94070DAD
:1016D0000EF4E0950B2EBA2FA02D0B01B90190014D
:1016E0000C01CA01A0011124FF27591B99F0593F91
:1016F00050F4503E68F11A16F040A22F232F342FD9
:101700004427585FF3CF469537952795A795F04026
:101710005395C9F77EF41F16BA0B620B730B840B3B
:10172000BAF09150A1F0FF0FBB1F661F771F881FF3
:10173000C2F70EC0BA0F621F731F841F48F487954B
:1017400077956795B795F7959E3F08F0B0CF93953D
:10175000880F08F09927EE0F9795879508950E94B6
:10176000990C08F481E008950E94C80B0C94D40CE5
:101770000E94CD0C58F00E94C60C40F029F45F3F47
:1017800029F00C94BD0C51110C94080D0C94C30C51
:101790000E94E50C68F39923B1F3552391F3951B4F
:1017A000550BBB27AA2762177307840738F09F5F82
:1017B0005F4F220F331F441FAA1FA9F335D00E2EEF
:1017C0003AF0E0E832D091505040E695001CCAF75C
:1017D0002BD0FE2F29D0660F771F881FBB1F26171F
:1017E00037074807AB07B0E809F0BB0B802DBF01F6
:1017F000FF2793585F4F3AF09E3F510578F00C94C5
:10180000BD0C0C94080D5F3FE4F3983ED4F386952D
:1018100077956795B795F7959F5FC9F7880F911DE5
:101820009695879597F90895E1E0660F771F881FD1
:10183000BB1F621773078407BA0720F0621B730B84
:10184000840BBA0BEE1F88F7E09508950E942D0CCB
:101850006894B1110C94080D08950E94ED0C88F065
:101860009F5798F0B92F9927B751B0F0E1F0660F64
:10187000771F881F991F1AF0BA95C9F714C0B130A5
:1018800091F00E94070DB1E008950C94070D672FA9
:10189000782F8827B85F39F0B93FCCF386957795D4
:1018A0006795B395D9F73EF49095809570956195BD
:1018B0007F4F8F4F9F4F0895E89409C097FB3EF4E8
:1018C00090958095709561957F4F8F4F9F4F99238D
:1018D000A9F0F92F96E9BB279395F695879577950B
:1018E0006795B795F111F8CFFAF4BB0F11F460FFCB
:1018F0001BC06F5F7F4F8F4F9F4F16C0882311F023
:1019000096E911C0772321F09EE8872F762F05C036
:10191000662371F096E8862F70E060E02AF09A95D1
:10192000660F771F881FDAF7880F9695879597F9C6
:101930000895990F0008550FAA0BE0E8FEEF161660
:101940001706E807F907C0F012161306E407F507B3
:1019500098F0621B730B840B950B39F40A2661F027
:10196000232B242B252B21F408950A2609F4A140CA
:10197000A6958FEF811D811D089597F99F6780E8D7
:1019800070E060E008959FEF80EC089500240A94D1
:101990001616170618060906089500240A9412164A
:1019A0001306140605060895092E0394000C11F47D
:1019B000882352F0BB0F40F4BF2B11F460FF04C02A
:1019C0006F5F7F4F8F4F9F4F089557FD9058440F83
:1019D000551F59F05F3F71F04795880F97FB991F8E
:1019E00061F09F3F79F0879508951216130614064B
:1019F000551FF2CF4695F1DF08C0161617061806D8
:101A0000991FF1CF86957105610508940895E894B2
:101A1000BB2766277727CB0197F908950E94990C79
:101A200008F48FEF08950E94260D0C94D40C0E94A8
:101A3000C60C38F00E94CD0C20F0952311F00C94C8
:101A4000BD0C0C94C30C11240C94080D0E94E50CE1
:101A500070F3959FC1F3950F50E0551F629FF00101
:101A6000729FBB27F00DB11D639FAA27F00DB11D1A
:101A7000AA1F649F6627B00DA11D661F829F2227A3
:101A8000B00DA11D621F739FB00DA11D621F839F2A
:101A9000A00D611D221F749F3327A00D611D231F00
:101AA000849F600D211D822F762F6A2F11249F574E
:101AB00050409AF0F1F088234AF0EE0FFF1FBB1F51
:101AC000661F771F881F91505040A9F79E3F510510
:101AD00080F00C94BD0C0C94080D5F3FE4F3983E2D
:101AE000D4F3869577956795B795F795E7959F5FBA
:101AF000C1F7FE2B880F911D9695879597F908954C
:101B0000A1E21A2EAA1BBB1BFD010DC0AA1FBB1F01
:101B1000EE1FFF1FA217B307E407F50720F0A21B73
:101B2000B30BE40BF50B661F771F881F991F1A94E0
:101B300069F760957095809590959B01AC01BD010A
:101B4000CF010895EE0FFF1F0590F491E02D099449
:101B50000F931F93CF93DF938230910510F482E0AF
:101B600090E0E0911A02F0911B0230E020E0B0E03A
:101B7000A0E0309799F42115310509F44AC0281BDB
:101B8000390B24303105D8F58A819B8161157105A7
:101B900089F1FB0193838283FE0111C04081518151
:101BA0000281138148175907E0F04817590799F443
:101BB000109761F012960C93129713961C9332961D
:101BC000CF01DF91CF911F910F91089500931A02D9
:101BD00010931B02F4CF2115310551F04217530722
:101BE00038F0A901DB019A01BD01DF01F801C1CF85
:101BF000EF01F9CF90931B0280931A02CDCFFE0123
:101C0000E20FF31F81939193225031093983288386
:101C1000D7CF2091180230911902232B41F4209143
:101C2000030130910401309319022093180220918E
:101C30000101309102012115310541F42DB73EB764
:101C40004091050150910601241B350BE0911802CB
:101C5000F0911902E217F307A0F42E1B3F0B28178F
:101C6000390778F0AC014E5F5F4F2417350748F015
:101C70004E0F5F1F50931902409318028193919366
:101C80009FCFF0E0E0E09CCFCF93DF930097E9F0A7
:101C9000FC01329713821282A0911A02B0911B02AA
:101CA000ED0130E020E01097A1F420813181820F16
:101CB000931F20911802309119022817390709F053
:101CC00061C0F0931902E0931802DF91CF9108955B
:101CD000EA01CE17DF07E8F54A815B819E014115D5
:101CE0005105B1F7E901FB83EA8349915991C40F8A
:101CF000D51FEC17FD0761F4808191810296840F56
:101D0000951FE90199838883828193819B838A83CC
:101D1000F0E0E0E012968D919C9113970097B9F551
:101D20002D913C911197CD010296820F931F209126
:101D30001802309119022817390739F6309751F5F2
:101D400010921B0210921A02B0931902A09318026B
:101D5000BCCFD383C28340815181840F951FC817A4
:101D6000D90761F44E5F5F4F88819981480F591FF1
:101D7000518340838A819B8193838283211531051E
:101D800009F0B0CFF0931B02E0931A029ECFFD0141
:0E1D9000DC01C0CF13821282D7CFF894FFCFB0
:101D9E000100001C0280000000020007000000008D
:101DAE00002C018C00B9007901EA00C800DC000D9E
:101DBE000A0054455354494E47200054455354206D
:021DCE00000013
:00000001FF
